{
  "contractName": "Greetings",
  "abi": [
    {
      "constant": true,
      "inputs": [],
      "name": "testOwnable",
      "outputs": [
        {
          "name": "",
          "type": "string"
        }
      ],
      "payable": false,
      "stateMutability": "pure",
      "type": "function"
    },
    {
      "constant": true,
      "inputs": [],
      "name": "getName",
      "outputs": [
        {
          "name": "",
          "type": "string"
        }
      ],
      "payable": false,
      "stateMutability": "view",
      "type": "function"
    },
    {
      "constant": true,
      "inputs": [],
      "name": "getMessage",
      "outputs": [
        {
          "name": "",
          "type": "string"
        }
      ],
      "payable": false,
      "stateMutability": "view",
      "type": "function"
    },
    {
      "inputs": [
        {
          "name": "_message",
          "type": "string"
        }
      ],
      "payable": false,
      "stateMutability": "nonpayable",
      "type": "constructor"
    }
  ],
  "bytecode": "0x6060604052341561000f57600080fd5b6040516106d33803806106d383398101604052808051820191905050806100346100c1565b604051809103906000f080151561004a57600080fd5b81600090805190602001906100609291906100d1565b5080600160006101000a81548173ffffffffffffffffffffffffffffffffffffffff021916908373ffffffffffffffffffffffffffffffffffffffff160217905550505080600290805190602001906100ba9291906100d1565b5050610176565b6040516101758061055e83390190565b828054600181600116156101000203166002900490600052602060002090601f016020900481019282601f1061011257805160ff1916838001178555610140565b82800160010185558215610140579182015b8281111561013f578251825591602001919060010190610124565b5b50905061014d9190610151565b5090565b61017391905b8082111561016f576000816000905550600101610157565b5090565b90565b6103d9806101856000396000f300606060405260043610610057576000357c0100000000000000000000000000000000000000000000000000000000900463ffffffff16806301d06c7f1461005c57806317d7de7c146100ea578063ce6d41de14610178575b600080fd5b341561006757600080fd5b61006f610206565b6040518080602001828103825283818151815260200191508051906020019080838360005b838110156100af578082015181840152602081019050610094565b50505050905090810190601f1680156100dc5780820380516001836020036101000a031916815260200191505b509250505060405180910390f35b34156100f557600080fd5b6100fd610249565b6040518080602001828103825283818151815260200191508051906020019080838360005b8381101561013d578082015181840152602081019050610122565b50505050905090810190601f16801561016a5780820380516001836020036101000a031916815260200191505b509250505060405180910390f35b341561018357600080fd5b61018b6102f1565b6040518080602001828103825283818151815260200191508051906020019080838360005b838110156101cb5780820151818401526020810190506101b0565b50505050905090810190601f1680156101f85780820380516001836020036101000a031916815260200191505b509250505060405180910390f35b61020e610399565b6040805190810160405280601081526020017f66726f6d20746573744f776e61626c6500000000000000000000000000000000815250905090565b610251610399565b60008054600181600116156101000203166002900480601f0160208091040260200160405190810160405280929190818152602001828054600181600116156101000203166002900480156102e75780601f106102bc576101008083540402835291602001916102e7565b820191906000526020600020905b8154815290600101906020018083116102ca57829003601f168201915b5050505050905090565b6102f9610399565b60028054600181600116156101000203166002900480601f01602080910402602001604051908101604052809291908181526020018280546001816001161561010002031660029004801561038f5780601f106103645761010080835404028352916020019161038f565b820191906000526020600020905b81548152906001019060200180831161037257829003601f168201915b5050505050905090565b6020604051908101604052806000815250905600a165627a7a7230582069353a31f92f440416747b86097abc2e539717420146efc135ad04ffa0d8e16700296060604052341561000f57600080fd5b6101578061001e6000396000f300606060405260043610610041576000357c0100000000000000000000000000000000000000000000000000000000900463ffffffff1680633fa4f24514610046575b600080fd5b341561005157600080fd5b6100596100d4565b6040518080602001828103825283818151815260200191508051906020019080838360005b8381101561009957808201518184015260208101905061007e565b50505050905090810190601f1680156100c65780820380516001836020036101000a031916815260200191505b509250505060405180910390f35b6100dc610117565b6040805190810160405280601281526020017f68692066726f6d206d7944617461547970650000000000000000000000000000815250905090565b6020604051908101604052806000815250905600a165627a7a72305820324c4af76168d2c97bf41e232626c2ceb8ad445fb5f49163fc7c5a49e20e57030029",
  "source": "pragma solidity ^0.4.18;\n\nimport \"./MyImport.sol\";\nimport \"./MyDataType.sol\";\n// import \"zeppelin-solidity/contracts/crowdsale/Crowdsale.sol\";\n// import \"zeppelin-solidity/contracts/crowdsale/validation/CappedCrowdsale.sol\";\n// import \"zeppelin-solidity/contracts/crowdsale/distribution/RefundableCrowdsale.sol\";\n// import \"zeppelin-solidity/contracts/crowdsale/emission/MintedCrowdsale.sol\";\n// import \"zeppelin-solidity/contracts/token/ERC20/MintableToken.sol\";\n\ncontract Greetings is MyImport {\n    string message;\n    MyDataType myDT;\n\n    function Greetings(string _message) public \n        MyImport(_message, new MyDataType())\n    {\n        message = _message;\n    }\n\n    function getMessage() public view returns(string) {\n        return message;\n    }\n\n    function getName() public view returns(string) {\n        return name;\n    }\n\n    function getMyDataType() internal returns (MyDataType) {\n        return new MyDataType();\n    }\n}",
  "sourcePath": "/Users/Colin/ChainSkills/Training/GreetingsTruffle/contracts/Greetings.sol",
  "compiler": {
    "name": "solc",
    "version": "0.4.18+commit.9cf6e910.Emscripten.clang"
  },
  "schemaVersion": "1.0.1",
  "updatedAt": "2018-03-07T21:49:16.653Z"
}