{
  "contractName": "GreetingsParent",
  "abi": [
    {
      "constant": true,
      "inputs": [],
      "name": "testOwnable",
      "outputs": [
        {
          "name": "",
          "type": "string"
        }
      ],
      "payable": false,
      "stateMutability": "pure",
      "type": "function"
    },
    {
      "inputs": [
        {
          "name": "_name",
          "type": "string"
        },
        {
          "name": "_myDT",
          "type": "address"
        }
      ],
      "payable": false,
      "stateMutability": "nonpayable",
      "type": "constructor"
    }
  ],
  "bytecode": "0x6060604052341561000f57600080fd5b6040516102a13803806102a183398101604052808051820191906020018051906020019091905050816000908051906020019061004d929190610096565b5080600160006101000a81548173ffffffffffffffffffffffffffffffffffffffff021916908373ffffffffffffffffffffffffffffffffffffffff160217905550505061013b565b828054600181600116156101000203166002900490600052602060002090601f016020900481019282601f106100d757805160ff1916838001178555610105565b82800160010185558215610105579182015b828111156101045782518255916020019190600101906100e9565b5b5090506101129190610116565b5090565b61013891905b8082111561013457600081600090555060010161011c565b5090565b90565b6101578061014a6000396000f300606060405260043610610041576000357c0100000000000000000000000000000000000000000000000000000000900463ffffffff16806301d06c7f14610046575b600080fd5b341561005157600080fd5b6100596100d4565b6040518080602001828103825283818151815260200191508051906020019080838360005b8381101561009957808201518184015260208101905061007e565b50505050905090810190601f1680156100c65780820380516001836020036101000a031916815260200191505b509250505060405180910390f35b6100dc610117565b6040805190810160405280601081526020017f66726f6d20746573744f776e61626c6500000000000000000000000000000000815250905090565b6020604051908101604052806000815250905600a165627a7a72305820169f05aac021f81c8fbb0955efea493ed58d11fbb49b28c6b4e29878db0350600029",
  "source": "pragma solidity ^0.4.17;\n\nimport \"./MyDataType.sol\";\n\ncontract GreetingsParent { \n    string name;\n    MyDataType myDT;\n\n    function GreetingsParent(string _name, MyDataType _myDT) public {\n        name = _name;\n        myDT = _myDT;\n    }\n\n    function testOwnable() public pure returns(string) {\n        return \"from testOwnable\";\n    }\n}\n\n",
  "sourcePath": "/Users/Colin/ChainSkills/Training/GreetingsTruffle/contracts/GreetingsParent.sol",
  "compiler": {
    "name": "solc",
    "version": "0.4.18+commit.9cf6e910.Emscripten.clang"
  },
  "schemaVersion": "1.0.1",
  "updatedAt": "2018-03-08T17:02:02.324Z"
}