{
  "contractName": "Greetings",
  "abi": [
    {
      "constant": true,
      "inputs": [],
      "name": "testOwnable",
      "outputs": [
        {
          "name": "",
          "type": "string"
        }
      ],
      "payable": false,
      "stateMutability": "pure",
      "type": "function"
    },
    {
      "constant": true,
      "inputs": [],
      "name": "getToken",
      "outputs": [
        {
          "name": "",
          "type": "int256"
        }
      ],
      "payable": false,
      "stateMutability": "view",
      "type": "function"
    },
    {
      "constant": false,
      "inputs": [
        {
          "name": "_message",
          "type": "string"
        }
      ],
      "name": "setMessage",
      "outputs": [],
      "payable": false,
      "stateMutability": "nonpayable",
      "type": "function"
    },
    {
      "constant": true,
      "inputs": [],
      "name": "getMessage",
      "outputs": [
        {
          "name": "",
          "type": "string"
        }
      ],
      "payable": false,
      "stateMutability": "view",
      "type": "function"
    },
    {
      "inputs": [
        {
          "name": "_message",
          "type": "string"
        }
      ],
      "payable": false,
      "stateMutability": "nonpayable",
      "type": "constructor"
    }
  ],
  "bytecode": "0x6060604052341561000f57600080fd5b604051610703380380610703833981016040528080518201919050506100336100a6565b604051809103906000f080151561004957600080fd5b600160006101000a81548173ffffffffffffffffffffffffffffffffffffffff021916908373ffffffffffffffffffffffffffffffffffffffff160217905550806000908051906020019061009f9291906100b5565b505061015a565b60405160f78061060c83390190565b828054600181600116156101000203166002900490600052602060002090601f016020900481019282601f106100f657805160ff1916838001178555610124565b82800160010185558215610124579182015b82811115610123578251825591602001919060010190610108565b5b5090506101319190610135565b5090565b61015791905b8082111561015357600081600090555060010161013b565b5090565b90565b6104a3806101696000396000f300606060405260043610610062576000357c0100000000000000000000000000000000000000000000000000000000900463ffffffff16806301d06c7f1461006757806321df0da7146100f5578063368b87721461011e578063ce6d41de1461017b575b600080fd5b341561007257600080fd5b61007a610209565b6040518080602001828103825283818151815260200191508051906020019080838360005b838110156100ba57808201518184015260208101905061009f565b50505050905090810190601f1680156100e75780820380516001836020036101000a031916815260200191505b509250505060405180910390f35b341561010057600080fd5b61010861024c565b6040518082815260200191505060405180910390f35b341561012957600080fd5b610179600480803590602001908201803590602001908080601f016020809104026020016040519081016040528093929190818152602001838380828437820191505050505050919050506102fc565b005b341561018657600080fd5b61018e610316565b6040518080602001828103825283818151815260200191508051906020019080838360005b838110156101ce5780820151818401526020810190506101b3565b50505050905090810190601f1680156101fb5780820380516001836020036101000a031916815260200191505b509250505060405180910390f35b6102116103be565b6040805190810160405280601081526020017f66726f6d20746573744f776e61626c6500000000000000000000000000000000815250905090565b6000600160009054906101000a900473ffffffffffffffffffffffffffffffffffffffff1673ffffffffffffffffffffffffffffffffffffffff166317d7de7c6000604051602001526040518163ffffffff167c0100000000000000000000000000000000000000000000000000000000028152600401602060405180830381600087803b15156102dc57600080fd5b6102c65a03f115156102ed57600080fd5b50505060405180519050905090565b80600090805190602001906103129291906103d2565b5050565b61031e6103be565b60008054600181600116156101000203166002900480601f0160208091040260200160405190810160405280929190818152602001828054600181600116156101000203166002900480156103b45780601f10610389576101008083540402835291602001916103b4565b820191906000526020600020905b81548152906001019060200180831161039757829003601f168201915b5050505050905090565b602060405190810160405280600081525090565b828054600181600116156101000203166002900490600052602060002090601f016020900481019282601f1061041357805160ff1916838001178555610441565b82800160010185558215610441579182015b82811115610440578251825591602001919060010190610425565b5b50905061044e9190610452565b5090565b61047491905b80821115610470576000816000905550600101610458565b5090565b905600a165627a7a72305820866147abaa9f4e103895392edc62bf2221b575acc0c8cc16e1fc6ea9ad6f67ec00296060604052600b600055341561001457600080fd5b60d5806100226000396000f3006060604052600436106049576000357c0100000000000000000000000000000000000000000000000000000000900463ffffffff16806306fdde0314604e57806317d7de7c146074575b600080fd5b3415605857600080fd5b605e609a565b6040518082815260200191505060405180910390f35b3415607e57600080fd5b608460a0565b6040518082815260200191505060405180910390f35b60005481565b600080549050905600a165627a7a72305820ed71782e5d3e002b48a196aada0ec38bc5f22438d439aa389da46a6a9976926a0029",
  "source": "pragma solidity ^0.4.18;\n\nimport \"./Ownable.sol\";\nimport \"./MintableToken.sol\";\n// import \"zeppelin-solidity/contracts/crowdsale/Crowdsale.sol\";\n// import \"zeppelin-solidity/contracts/crowdsale/validation/CappedCrowdsale.sol\";\n// import \"zeppelin-solidity/contracts/crowdsale/distribution/RefundableCrowdsale.sol\";\n// import \"zeppelin-solidity/contracts/crowdsale/emission/MintedCrowdsale.sol\";\n// import \"zeppelin-solidity/contracts/token/ERC20/MintableToken.sol\";\n\ncontract Greetings is Ownable {\n    string message;\n    MintableToken token;\n\n    // function Greetings(string _message, MintableToken _token) public {\n    //     message = _message;\n    //     token = _token;\n    // }\n    function Greetings(string _message) public {\n        token = new MintableToken();\n        message = _message;\n    }\n\n    function setMessage(string _message) public {\n        message = _message;\n    } \n\n    function getMessage() public view returns(string) {\n        return message;\n    }\n\n    function getToken() public view returns(int) {\n        return token.getName();\n    }\n}",
  "sourcePath": "/Users/Colin/ChainSkills/Training/GreetingsTruffle/contracts/Greetings.sol",
  "compiler": {
    "name": "solc",
    "version": "0.4.18+commit.9cf6e910.Emscripten.clang"
  },
  "schemaVersion": "1.0.1",
  "updatedAt": "2018-03-07T19:59:21.692Z"
}