{
  "contractName": "MintableToken",
  "abi": [
    {
      "constant": true,
      "inputs": [],
      "name": "name",
      "outputs": [
        {
          "name": "",
          "type": "int256"
        }
      ],
      "payable": false,
      "stateMutability": "view",
      "type": "function"
    },
    {
      "constant": true,
      "inputs": [],
      "name": "getName",
      "outputs": [
        {
          "name": "",
          "type": "int256"
        }
      ],
      "payable": false,
      "stateMutability": "view",
      "type": "function"
    }
  ],
  "bytecode": "0x6060604052600b600055341561001457600080fd5b60d5806100226000396000f3006060604052600436106049576000357c0100000000000000000000000000000000000000000000000000000000900463ffffffff16806306fdde0314604e57806317d7de7c146074575b600080fd5b3415605857600080fd5b605e609a565b6040518082815260200191505060405180910390f35b3415607e57600080fd5b608460a0565b6040518082815260200191505060405180910390f35b60005481565b600080549050905600a165627a7a72305820ed71782e5d3e002b48a196aada0ec38bc5f22438d439aa389da46a6a9976926a0029",
  "source": "pragma solidity ^0.4.17;\n\ncontract  MintableToken {\n  int public name = 11;\n\n  function getName() public view returns(int) {\n      return name;\n  }\n}",
  "sourcePath": "/Users/Colin/ChainSkills/Training/GreetingsTruffle/contracts/MintableToken.sol",
  "compiler": {
    "name": "solc",
    "version": "0.4.18+commit.9cf6e910.Emscripten.clang"
  },
  "schemaVersion": "1.0.1",
  "updatedAt": "2018-03-07T19:59:21.395Z"
}