{
  "contractName": "Ownable",
  "abi": [
    {
      "constant": true,
      "inputs": [],
      "name": "testOwnable",
      "outputs": [
        {
          "name": "",
          "type": "string"
        }
      ],
      "payable": false,
      "stateMutability": "pure",
      "type": "function"
    }
  ],
  "bytecode": "0x6060604052341561000f57600080fd5b6101578061001e6000396000f300606060405260043610610041576000357c0100000000000000000000000000000000000000000000000000000000900463ffffffff16806301d06c7f14610046575b600080fd5b341561005157600080fd5b6100596100d4565b6040518080602001828103825283818151815260200191508051906020019080838360005b8381101561009957808201518184015260208101905061007e565b50505050905090810190601f1680156100c65780820380516001836020036101000a031916815260200191505b509250505060405180910390f35b6100dc610117565b6040805190810160405280601081526020017f66726f6d20746573744f776e61626c6500000000000000000000000000000000815250905090565b6020604051908101604052806000815250905600a165627a7a72305820549373e087846591af4fe6d45170aa9d4133668328e2332582b303a3b425f8490029",
  "source": "pragma solidity ^0.4.17;\n\ncontract Ownable { \n    function testOwnable() public pure returns(string) {\n        return \"from testOwnable\";\n    }\n}\n\n",
  "sourcePath": "/Users/Colin/ChainSkills/Training/GreetingsTruffle/contracts/Ownable.sol",
  "compiler": {
    "name": "solc",
    "version": "0.4.18+commit.9cf6e910.Emscripten.clang"
  },
  "schemaVersion": "1.0.1",
  "updatedAt": "2018-03-07T19:59:21.396Z"
}