{
  "contractName": "xFitTokenCrowdsale",
  "abi": [
    {
      "constant": true,
      "inputs": [],
      "name": "rate",
      "outputs": [
        {
          "name": "",
          "type": "uint256"
        }
      ],
      "payable": false,
      "stateMutability": "view",
      "type": "function"
    },
    {
      "constant": true,
      "inputs": [],
      "name": "cap",
      "outputs": [
        {
          "name": "",
          "type": "uint256"
        }
      ],
      "payable": false,
      "stateMutability": "view",
      "type": "function"
    },
    {
      "constant": true,
      "inputs": [],
      "name": "weiRaised",
      "outputs": [
        {
          "name": "",
          "type": "uint256"
        }
      ],
      "payable": false,
      "stateMutability": "view",
      "type": "function"
    },
    {
      "constant": true,
      "inputs": [],
      "name": "capReached",
      "outputs": [
        {
          "name": "",
          "type": "bool"
        }
      ],
      "payable": false,
      "stateMutability": "view",
      "type": "function"
    },
    {
      "constant": true,
      "inputs": [],
      "name": "wallet",
      "outputs": [
        {
          "name": "",
          "type": "address"
        }
      ],
      "payable": false,
      "stateMutability": "view",
      "type": "function"
    },
    {
      "constant": false,
      "inputs": [],
      "name": "createXFitTokenContract",
      "outputs": [
        {
          "name": "",
          "type": "address"
        }
      ],
      "payable": true,
      "stateMutability": "payable",
      "type": "function"
    },
    {
      "constant": false,
      "inputs": [
        {
          "name": "_beneficiary",
          "type": "address"
        }
      ],
      "name": "buyTokens",
      "outputs": [],
      "payable": true,
      "stateMutability": "payable",
      "type": "function"
    },
    {
      "constant": true,
      "inputs": [],
      "name": "token",
      "outputs": [
        {
          "name": "",
          "type": "address"
        }
      ],
      "payable": false,
      "stateMutability": "view",
      "type": "function"
    },
    {
      "inputs": [
        {
          "name": "_openingTime",
          "type": "uint256"
        },
        {
          "name": "_closingTime",
          "type": "uint256"
        },
        {
          "name": "_rate",
          "type": "uint256"
        },
        {
          "name": "_cap",
          "type": "uint256"
        },
        {
          "name": "_goal",
          "type": "uint256"
        },
        {
          "name": "_wallet",
          "type": "address"
        }
      ],
      "payable": false,
      "stateMutability": "nonpayable",
      "type": "constructor"
    },
    {
      "payable": true,
      "stateMutability": "payable",
      "type": "fallback"
    },
    {
      "anonymous": false,
      "inputs": [
        {
          "indexed": true,
          "name": "purchaser",
          "type": "address"
        },
        {
          "indexed": true,
          "name": "beneficiary",
          "type": "address"
        },
        {
          "indexed": false,
          "name": "value",
          "type": "uint256"
        },
        {
          "indexed": false,
          "name": "amount",
          "type": "uint256"
        }
      ],
      "name": "TokenPurchase",
      "type": "event"
    }
  ],
  "bytecode": "0x6060604052341561000f57600080fd5b60405160c080613cad833981016040528080519060200190919080519060200190919080519060200190919080519060200190919080519060200190919080519060200190919050508284826100636101bc565b604051809103906000f080151561007957600080fd5b60008311151561008857600080fd5b600073ffffffffffffffffffffffffffffffffffffffff168273ffffffffffffffffffffffffffffffffffffffff16141515156100c457600080fd5b600073ffffffffffffffffffffffffffffffffffffffff168173ffffffffffffffffffffffffffffffffffffffff161415151561010057600080fd5b8260028190555081600160006101000a81548173ffffffffffffffffffffffffffffffffffffffff021916908373ffffffffffffffffffffffffffffffffffffffff160217905550806000806101000a81548173ffffffffffffffffffffffffffffffffffffffff021916908373ffffffffffffffffffffffffffffffffffffffff16021790555050505060008111151561019a57600080fd5b80600481905550508282111515156101b157600080fd5b5050505050506101cc565b604051611a3a8061227383390190565b612098806101db6000396000f30060606040526004361061008e576000357c0100000000000000000000000000000000000000000000000000000000900463ffffffff1680632c4e722e14610099578063355274ea146100c25780634042b66f146100eb5780634f93594514610114578063521eb27314610141578063e795452714610196578063ec8ac4d8146101e0578063fc0c546a1461020e575b61009733610263565b005b34156100a457600080fd5b6100ac610331565b6040518082815260200191505060405180910390f35b34156100cd57600080fd5b6100d5610337565b6040518082815260200191505060405180910390f35b34156100f657600080fd5b6100fe61033d565b6040518082815260200191505060405180910390f35b341561011f57600080fd5b610127610343565b604051808215151515815260200191505060405180910390f35b341561014c57600080fd5b610154610352565b604051808273ffffffffffffffffffffffffffffffffffffffff1673ffffffffffffffffffffffffffffffffffffffff16815260200191505060405180910390f35b61019e610378565b604051808273ffffffffffffffffffffffffffffffffffffffff1673ffffffffffffffffffffffffffffffffffffffff16815260200191505060405180910390f35b61020c600480803573ffffffffffffffffffffffffffffffffffffffff16906020019091905050610263565b005b341561021957600080fd5b61022161039d565b604051808273ffffffffffffffffffffffffffffffffffffffff1673ffffffffffffffffffffffffffffffffffffffff16815260200191505060405180910390f35b60008034915061027383836103c2565b61027c826103f5565b90506102938260035461041390919063ffffffff16565b6003819055506102a38382610431565b8273ffffffffffffffffffffffffffffffffffffffff163373ffffffffffffffffffffffffffffffffffffffff167f623b3804fa71d67900d064613da8f94b9617215ee90799290593e1745087ad188484604051808381526020018281526020019250505060405180910390a361031a838361043f565b610322610443565b61032c83836104a7565b505050565b60025481565b60045481565b60035481565b60006004546003541015905090565b600160009054906101000a900473ffffffffffffffffffffffffffffffffffffffff1681565b6000610382610622565b604051809103906000f080151561039857600080fd5b905090565b6000809054906101000a900473ffffffffffffffffffffffffffffffffffffffff1681565b6103cc82826104ab565b6004546103e48260035461041390919063ffffffff16565b111515156103f157600080fd5b5050565b600061040c600254836104fb90919063ffffffff16565b9050919050565b600080828401905083811015151561042757fe5b8091505092915050565b61043b8282610536565b5050565b5050565b600160009054906101000a900473ffffffffffffffffffffffffffffffffffffffff1673ffffffffffffffffffffffffffffffffffffffff166108fc349081150290604051600060405180830381858888f1935050505015156104a557600080fd5b565b5050565b600073ffffffffffffffffffffffffffffffffffffffff168273ffffffffffffffffffffffffffffffffffffffff16141515156104e757600080fd5b600081141515156104f757600080fd5b5050565b6000806000841415610510576000915061052f565b828402905082848281151561052157fe5b0414151561052b57fe5b8091505b5092915050565b6000809054906101000a900473ffffffffffffffffffffffffffffffffffffffff1673ffffffffffffffffffffffffffffffffffffffff1663a9059cbb83836000604051602001526040518363ffffffff167c0100000000000000000000000000000000000000000000000000000000028152600401808373ffffffffffffffffffffffffffffffffffffffff1673ffffffffffffffffffffffffffffffffffffffff16815260200182815260200192505050602060405180830381600087803b151561060257600080fd5b6102c65a03f1151561061357600080fd5b50505060405180519050505050565b604051611a3a8061063383390190560060606040526000600360146101000a81548160ff0219169083151502179055506040805190810160405280600981526020017f78466974546f6b656e0000000000000000000000000000000000000000000000815250600490805190602001906200006c9291906200011e565b506040805190810160405280600381526020017f584654000000000000000000000000000000000000000000000000000000000081525060059080519060200190620000ba9291906200011e565b506000600660006101000a81548160ff021916908360ff16021790555033600360006101000a81548173ffffffffffffffffffffffffffffffffffffffff021916908373ffffffffffffffffffffffffffffffffffffffff160217905550620001cd565b828054600181600116156101000203166002900490600052602060002090601f016020900481019282601f106200016157805160ff191683800117855562000192565b8280016001018555821562000192579182015b828111156200019157825182559160200191906001019062000174565b5b509050620001a19190620001a5565b5090565b620001ca91905b80821115620001c6576000816000905550600101620001ac565b5090565b90565b61185d80620001dd6000396000f3006060604052600436106100e6576000357c0100000000000000000000000000000000000000000000000000000000900463ffffffff16806305d2035b146100eb57806306fdde0314610118578063095ea7b3146101a657806318160ddd1461020057806323b872dd14610229578063313ce567146102a257806340c10f19146102d1578063661884631461032b57806370a08231146103855780637d64bcb4146103d25780638da5cb5b146103ff57806395d89b4114610454578063a9059cbb146104e2578063d73dd6231461053c578063dd62ed3e14610596578063f2fde38b14610602575b600080fd5b34156100f657600080fd5b6100fe61063b565b604051808215151515815260200191505060405180910390f35b341561012357600080fd5b61012b61064e565b6040518080602001828103825283818151815260200191508051906020019080838360005b8381101561016b578082015181840152602081019050610150565b50505050905090810190601f1680156101985780820380516001836020036101000a031916815260200191505b509250505060405180910390f35b34156101b157600080fd5b6101e6600480803573ffffffffffffffffffffffffffffffffffffffff169060200190919080359060200190919050506106ec565b604051808215151515815260200191505060405180910390f35b341561020b57600080fd5b6102136107de565b6040518082815260200191505060405180910390f35b341561023457600080fd5b610288600480803573ffffffffffffffffffffffffffffffffffffffff1690602001909190803573ffffffffffffffffffffffffffffffffffffffff169060200190919080359060200190919050506107e8565b604051808215151515815260200191505060405180910390f35b34156102ad57600080fd5b6102b5610ba2565b604051808260ff1660ff16815260200191505060405180910390f35b34156102dc57600080fd5b610311600480803573ffffffffffffffffffffffffffffffffffffffff16906020019091908035906020019091905050610bb5565b604051808215151515815260200191505060405180910390f35b341561033657600080fd5b61036b600480803573ffffffffffffffffffffffffffffffffffffffff16906020019091908035906020019091905050610d9b565b604051808215151515815260200191505060405180910390f35b341561039057600080fd5b6103bc600480803573ffffffffffffffffffffffffffffffffffffffff1690602001909190505061102c565b6040518082815260200191505060405180910390f35b34156103dd57600080fd5b6103e5611074565b604051808215151515815260200191505060405180910390f35b341561040a57600080fd5b61041261113c565b604051808273ffffffffffffffffffffffffffffffffffffffff1673ffffffffffffffffffffffffffffffffffffffff16815260200191505060405180910390f35b341561045f57600080fd5b610467611162565b6040518080602001828103825283818151815260200191508051906020019080838360005b838110156104a757808201518184015260208101905061048c565b50505050905090810190601f1680156104d45780820380516001836020036101000a031916815260200191505b509250505060405180910390f35b34156104ed57600080fd5b610522600480803573ffffffffffffffffffffffffffffffffffffffff16906020019091908035906020019091905050611200565b604051808215151515815260200191505060405180910390f35b341561054757600080fd5b61057c600480803573ffffffffffffffffffffffffffffffffffffffff1690602001909190803590602001909190505061141f565b604051808215151515815260200191505060405180910390f35b34156105a157600080fd5b6105ec600480803573ffffffffffffffffffffffffffffffffffffffff1690602001909190803573ffffffffffffffffffffffffffffffffffffffff1690602001909190505061161b565b6040518082815260200191505060405180910390f35b341561060d57600080fd5b610639600480803573ffffffffffffffffffffffffffffffffffffffff169060200190919050506116a2565b005b600360149054906101000a900460ff1681565b60048054600181600116156101000203166002900480601f0160208091040260200160405190810160405280929190818152602001828054600181600116156101000203166002900480156106e45780601f106106b9576101008083540402835291602001916106e4565b820191906000526020600020905b8154815290600101906020018083116106c757829003601f168201915b505050505081565b600081600260003373ffffffffffffffffffffffffffffffffffffffff1673ffffffffffffffffffffffffffffffffffffffff16815260200190815260200160002060008573ffffffffffffffffffffffffffffffffffffffff1673ffffffffffffffffffffffffffffffffffffffff168152602001908152602001600020819055508273ffffffffffffffffffffffffffffffffffffffff163373ffffffffffffffffffffffffffffffffffffffff167f8c5be1e5ebec7d5bd14f71427d1e84f3dd0314c0f7b2291e5b200ac8c7c3b925846040518082815260200191505060405180910390a36001905092915050565b6000600154905090565b60008073ffffffffffffffffffffffffffffffffffffffff168373ffffffffffffffffffffffffffffffffffffffff161415151561082557600080fd5b6000808573ffffffffffffffffffffffffffffffffffffffff1673ffffffffffffffffffffffffffffffffffffffff16815260200190815260200160002054821115151561087257600080fd5b600260008573ffffffffffffffffffffffffffffffffffffffff1673ffffffffffffffffffffffffffffffffffffffff16815260200190815260200160002060003373ffffffffffffffffffffffffffffffffffffffff1673ffffffffffffffffffffffffffffffffffffffff1681526020019081526020016000205482111515156108fd57600080fd5b61094e826000808773ffffffffffffffffffffffffffffffffffffffff1673ffffffffffffffffffffffffffffffffffffffff168152602001908152602001600020546117fa90919063ffffffff16565b6000808673ffffffffffffffffffffffffffffffffffffffff1673ffffffffffffffffffffffffffffffffffffffff168152602001908152602001600020819055506109e1826000808673ffffffffffffffffffffffffffffffffffffffff1673ffffffffffffffffffffffffffffffffffffffff1681526020019081526020016000205461181390919063ffffffff16565b6000808573ffffffffffffffffffffffffffffffffffffffff1673ffffffffffffffffffffffffffffffffffffffff16815260200190815260200160002081905550610ab282600260008773ffffffffffffffffffffffffffffffffffffffff1673ffffffffffffffffffffffffffffffffffffffff16815260200190815260200160002060003373ffffffffffffffffffffffffffffffffffffffff1673ffffffffffffffffffffffffffffffffffffffff168152602001908152602001600020546117fa90919063ffffffff16565b600260008673ffffffffffffffffffffffffffffffffffffffff1673ffffffffffffffffffffffffffffffffffffffff16815260200190815260200160002060003373ffffffffffffffffffffffffffffffffffffffff1673ffffffffffffffffffffffffffffffffffffffff168152602001908152602001600020819055508273ffffffffffffffffffffffffffffffffffffffff168473ffffffffffffffffffffffffffffffffffffffff167fddf252ad1be2c89b69c2b068fc378daa952ba7f163c4a11628f55a4df523b3ef846040518082815260200191505060405180910390a3600190509392505050565b600660009054906101000a900460ff1681565b6000600360009054906101000a900473ffffffffffffffffffffffffffffffffffffffff1673ffffffffffffffffffffffffffffffffffffffff163373ffffffffffffffffffffffffffffffffffffffff16141515610c1357600080fd5b600360149054906101000a900460ff16151515610c2f57600080fd5b610c448260015461181390919063ffffffff16565b600181905550610c9b826000808673ffffffffffffffffffffffffffffffffffffffff1673ffffffffffffffffffffffffffffffffffffffff1681526020019081526020016000205461181390919063ffffffff16565b6000808573ffffffffffffffffffffffffffffffffffffffff1673ffffffffffffffffffffffffffffffffffffffff168152602001908152602001600020819055508273ffffffffffffffffffffffffffffffffffffffff167f0f6798a560793a54c3bcfe86a93cde1e73087d944c0ea20544137d4121396885836040518082815260200191505060405180910390a28273ffffffffffffffffffffffffffffffffffffffff16600073ffffffffffffffffffffffffffffffffffffffff167fddf252ad1be2c89b69c2b068fc378daa952ba7f163c4a11628f55a4df523b3ef846040518082815260200191505060405180910390a36001905092915050565b600080600260003373ffffffffffffffffffffffffffffffffffffffff1673ffffffffffffffffffffffffffffffffffffffff16815260200190815260200160002060008573ffffffffffffffffffffffffffffffffffffffff1673ffffffffffffffffffffffffffffffffffffffff16815260200190815260200160002054905080831115610eac576000600260003373ffffffffffffffffffffffffffffffffffffffff1673ffffffffffffffffffffffffffffffffffffffff16815260200190815260200160002060008673ffffffffffffffffffffffffffffffffffffffff1673ffffffffffffffffffffffffffffffffffffffff16815260200190815260200160002081905550610f40565b610ebf83826117fa90919063ffffffff16565b600260003373ffffffffffffffffffffffffffffffffffffffff1673ffffffffffffffffffffffffffffffffffffffff16815260200190815260200160002060008673ffffffffffffffffffffffffffffffffffffffff1673ffffffffffffffffffffffffffffffffffffffff168152602001908152602001600020819055505b8373ffffffffffffffffffffffffffffffffffffffff163373ffffffffffffffffffffffffffffffffffffffff167f8c5be1e5ebec7d5bd14f71427d1e84f3dd0314c0f7b2291e5b200ac8c7c3b925600260003373ffffffffffffffffffffffffffffffffffffffff1673ffffffffffffffffffffffffffffffffffffffff16815260200190815260200160002060008873ffffffffffffffffffffffffffffffffffffffff1673ffffffffffffffffffffffffffffffffffffffff168152602001908152602001600020546040518082815260200191505060405180910390a3600191505092915050565b60008060008373ffffffffffffffffffffffffffffffffffffffff1673ffffffffffffffffffffffffffffffffffffffff168152602001908152602001600020549050919050565b6000600360009054906101000a900473ffffffffffffffffffffffffffffffffffffffff1673ffffffffffffffffffffffffffffffffffffffff163373ffffffffffffffffffffffffffffffffffffffff161415156110d257600080fd5b600360149054906101000a900460ff161515156110ee57600080fd5b6001600360146101000a81548160ff0219169083151502179055507fae5184fba832cb2b1f702aca6117b8d265eaf03ad33eb133f19dde0f5920fa0860405160405180910390a16001905090565b600360009054906101000a900473ffffffffffffffffffffffffffffffffffffffff1681565b60058054600181600116156101000203166002900480601f0160208091040260200160405190810160405280929190818152602001828054600181600116156101000203166002900480156111f85780601f106111cd576101008083540402835291602001916111f8565b820191906000526020600020905b8154815290600101906020018083116111db57829003601f168201915b505050505081565b60008073ffffffffffffffffffffffffffffffffffffffff168373ffffffffffffffffffffffffffffffffffffffff161415151561123d57600080fd5b6000803373ffffffffffffffffffffffffffffffffffffffff1673ffffffffffffffffffffffffffffffffffffffff16815260200190815260200160002054821115151561128a57600080fd5b6112db826000803373ffffffffffffffffffffffffffffffffffffffff1673ffffffffffffffffffffffffffffffffffffffff168152602001908152602001600020546117fa90919063ffffffff16565b6000803373ffffffffffffffffffffffffffffffffffffffff1673ffffffffffffffffffffffffffffffffffffffff1681526020019081526020016000208190555061136e826000808673ffffffffffffffffffffffffffffffffffffffff1673ffffffffffffffffffffffffffffffffffffffff1681526020019081526020016000205461181390919063ffffffff16565b6000808573ffffffffffffffffffffffffffffffffffffffff1673ffffffffffffffffffffffffffffffffffffffff168152602001908152602001600020819055508273ffffffffffffffffffffffffffffffffffffffff163373ffffffffffffffffffffffffffffffffffffffff167fddf252ad1be2c89b69c2b068fc378daa952ba7f163c4a11628f55a4df523b3ef846040518082815260200191505060405180910390a36001905092915050565b60006114b082600260003373ffffffffffffffffffffffffffffffffffffffff1673ffffffffffffffffffffffffffffffffffffffff16815260200190815260200160002060008673ffffffffffffffffffffffffffffffffffffffff1673ffffffffffffffffffffffffffffffffffffffff1681526020019081526020016000205461181390919063ffffffff16565b600260003373ffffffffffffffffffffffffffffffffffffffff1673ffffffffffffffffffffffffffffffffffffffff16815260200190815260200160002060008573ffffffffffffffffffffffffffffffffffffffff1673ffffffffffffffffffffffffffffffffffffffff168152602001908152602001600020819055508273ffffffffffffffffffffffffffffffffffffffff163373ffffffffffffffffffffffffffffffffffffffff167f8c5be1e5ebec7d5bd14f71427d1e84f3dd0314c0f7b2291e5b200ac8c7c3b925600260003373ffffffffffffffffffffffffffffffffffffffff1673ffffffffffffffffffffffffffffffffffffffff16815260200190815260200160002060008773ffffffffffffffffffffffffffffffffffffffff1673ffffffffffffffffffffffffffffffffffffffff168152602001908152602001600020546040518082815260200191505060405180910390a36001905092915050565b6000600260008473ffffffffffffffffffffffffffffffffffffffff1673ffffffffffffffffffffffffffffffffffffffff16815260200190815260200160002060008373ffffffffffffffffffffffffffffffffffffffff1673ffffffffffffffffffffffffffffffffffffffff16815260200190815260200160002054905092915050565b600360009054906101000a900473ffffffffffffffffffffffffffffffffffffffff1673ffffffffffffffffffffffffffffffffffffffff163373ffffffffffffffffffffffffffffffffffffffff161415156116fe57600080fd5b600073ffffffffffffffffffffffffffffffffffffffff168173ffffffffffffffffffffffffffffffffffffffff161415151561173a57600080fd5b8073ffffffffffffffffffffffffffffffffffffffff16600360009054906101000a900473ffffffffffffffffffffffffffffffffffffffff1673ffffffffffffffffffffffffffffffffffffffff167f8be0079c531659141344cd1fd0a4f28419497f9722a3daafe3b4186f6b6457e060405160405180910390a380600360006101000a81548173ffffffffffffffffffffffffffffffffffffffff021916908373ffffffffffffffffffffffffffffffffffffffff16021790555050565b600082821115151561180857fe5b818303905092915050565b600080828401905083811015151561182757fe5b80915050929150505600a165627a7a7230582090383335281491e4f0e99d5104e7f1e78a6026f4cfa3dac80f571e0d219c04fc0029a165627a7a723058201c06167bc1a947d95e3aa2e3d12210e62045651bd753039b7d8e173c5832d12b002960606040526000600360146101000a81548160ff0219169083151502179055506040805190810160405280600981526020017f78466974546f6b656e0000000000000000000000000000000000000000000000815250600490805190602001906200006c9291906200011e565b506040805190810160405280600381526020017f584654000000000000000000000000000000000000000000000000000000000081525060059080519060200190620000ba9291906200011e565b506000600660006101000a81548160ff021916908360ff16021790555033600360006101000a81548173ffffffffffffffffffffffffffffffffffffffff021916908373ffffffffffffffffffffffffffffffffffffffff160217905550620001cd565b828054600181600116156101000203166002900490600052602060002090601f016020900481019282601f106200016157805160ff191683800117855562000192565b8280016001018555821562000192579182015b828111156200019157825182559160200191906001019062000174565b5b509050620001a19190620001a5565b5090565b620001ca91905b80821115620001c6576000816000905550600101620001ac565b5090565b90565b61185d80620001dd6000396000f3006060604052600436106100e6576000357c0100000000000000000000000000000000000000000000000000000000900463ffffffff16806305d2035b146100eb57806306fdde0314610118578063095ea7b3146101a657806318160ddd1461020057806323b872dd14610229578063313ce567146102a257806340c10f19146102d1578063661884631461032b57806370a08231146103855780637d64bcb4146103d25780638da5cb5b146103ff57806395d89b4114610454578063a9059cbb146104e2578063d73dd6231461053c578063dd62ed3e14610596578063f2fde38b14610602575b600080fd5b34156100f657600080fd5b6100fe61063b565b604051808215151515815260200191505060405180910390f35b341561012357600080fd5b61012b61064e565b6040518080602001828103825283818151815260200191508051906020019080838360005b8381101561016b578082015181840152602081019050610150565b50505050905090810190601f1680156101985780820380516001836020036101000a031916815260200191505b509250505060405180910390f35b34156101b157600080fd5b6101e6600480803573ffffffffffffffffffffffffffffffffffffffff169060200190919080359060200190919050506106ec565b604051808215151515815260200191505060405180910390f35b341561020b57600080fd5b6102136107de565b6040518082815260200191505060405180910390f35b341561023457600080fd5b610288600480803573ffffffffffffffffffffffffffffffffffffffff1690602001909190803573ffffffffffffffffffffffffffffffffffffffff169060200190919080359060200190919050506107e8565b604051808215151515815260200191505060405180910390f35b34156102ad57600080fd5b6102b5610ba2565b604051808260ff1660ff16815260200191505060405180910390f35b34156102dc57600080fd5b610311600480803573ffffffffffffffffffffffffffffffffffffffff16906020019091908035906020019091905050610bb5565b604051808215151515815260200191505060405180910390f35b341561033657600080fd5b61036b600480803573ffffffffffffffffffffffffffffffffffffffff16906020019091908035906020019091905050610d9b565b604051808215151515815260200191505060405180910390f35b341561039057600080fd5b6103bc600480803573ffffffffffffffffffffffffffffffffffffffff1690602001909190505061102c565b6040518082815260200191505060405180910390f35b34156103dd57600080fd5b6103e5611074565b604051808215151515815260200191505060405180910390f35b341561040a57600080fd5b61041261113c565b604051808273ffffffffffffffffffffffffffffffffffffffff1673ffffffffffffffffffffffffffffffffffffffff16815260200191505060405180910390f35b341561045f57600080fd5b610467611162565b6040518080602001828103825283818151815260200191508051906020019080838360005b838110156104a757808201518184015260208101905061048c565b50505050905090810190601f1680156104d45780820380516001836020036101000a031916815260200191505b509250505060405180910390f35b34156104ed57600080fd5b610522600480803573ffffffffffffffffffffffffffffffffffffffff16906020019091908035906020019091905050611200565b604051808215151515815260200191505060405180910390f35b341561054757600080fd5b61057c600480803573ffffffffffffffffffffffffffffffffffffffff1690602001909190803590602001909190505061141f565b604051808215151515815260200191505060405180910390f35b34156105a157600080fd5b6105ec600480803573ffffffffffffffffffffffffffffffffffffffff1690602001909190803573ffffffffffffffffffffffffffffffffffffffff1690602001909190505061161b565b6040518082815260200191505060405180910390f35b341561060d57600080fd5b610639600480803573ffffffffffffffffffffffffffffffffffffffff169060200190919050506116a2565b005b600360149054906101000a900460ff1681565b60048054600181600116156101000203166002900480601f0160208091040260200160405190810160405280929190818152602001828054600181600116156101000203166002900480156106e45780601f106106b9576101008083540402835291602001916106e4565b820191906000526020600020905b8154815290600101906020018083116106c757829003601f168201915b505050505081565b600081600260003373ffffffffffffffffffffffffffffffffffffffff1673ffffffffffffffffffffffffffffffffffffffff16815260200190815260200160002060008573ffffffffffffffffffffffffffffffffffffffff1673ffffffffffffffffffffffffffffffffffffffff168152602001908152602001600020819055508273ffffffffffffffffffffffffffffffffffffffff163373ffffffffffffffffffffffffffffffffffffffff167f8c5be1e5ebec7d5bd14f71427d1e84f3dd0314c0f7b2291e5b200ac8c7c3b925846040518082815260200191505060405180910390a36001905092915050565b6000600154905090565b60008073ffffffffffffffffffffffffffffffffffffffff168373ffffffffffffffffffffffffffffffffffffffff161415151561082557600080fd5b6000808573ffffffffffffffffffffffffffffffffffffffff1673ffffffffffffffffffffffffffffffffffffffff16815260200190815260200160002054821115151561087257600080fd5b600260008573ffffffffffffffffffffffffffffffffffffffff1673ffffffffffffffffffffffffffffffffffffffff16815260200190815260200160002060003373ffffffffffffffffffffffffffffffffffffffff1673ffffffffffffffffffffffffffffffffffffffff1681526020019081526020016000205482111515156108fd57600080fd5b61094e826000808773ffffffffffffffffffffffffffffffffffffffff1673ffffffffffffffffffffffffffffffffffffffff168152602001908152602001600020546117fa90919063ffffffff16565b6000808673ffffffffffffffffffffffffffffffffffffffff1673ffffffffffffffffffffffffffffffffffffffff168152602001908152602001600020819055506109e1826000808673ffffffffffffffffffffffffffffffffffffffff1673ffffffffffffffffffffffffffffffffffffffff1681526020019081526020016000205461181390919063ffffffff16565b6000808573ffffffffffffffffffffffffffffffffffffffff1673ffffffffffffffffffffffffffffffffffffffff16815260200190815260200160002081905550610ab282600260008773ffffffffffffffffffffffffffffffffffffffff1673ffffffffffffffffffffffffffffffffffffffff16815260200190815260200160002060003373ffffffffffffffffffffffffffffffffffffffff1673ffffffffffffffffffffffffffffffffffffffff168152602001908152602001600020546117fa90919063ffffffff16565b600260008673ffffffffffffffffffffffffffffffffffffffff1673ffffffffffffffffffffffffffffffffffffffff16815260200190815260200160002060003373ffffffffffffffffffffffffffffffffffffffff1673ffffffffffffffffffffffffffffffffffffffff168152602001908152602001600020819055508273ffffffffffffffffffffffffffffffffffffffff168473ffffffffffffffffffffffffffffffffffffffff167fddf252ad1be2c89b69c2b068fc378daa952ba7f163c4a11628f55a4df523b3ef846040518082815260200191505060405180910390a3600190509392505050565b600660009054906101000a900460ff1681565b6000600360009054906101000a900473ffffffffffffffffffffffffffffffffffffffff1673ffffffffffffffffffffffffffffffffffffffff163373ffffffffffffffffffffffffffffffffffffffff16141515610c1357600080fd5b600360149054906101000a900460ff16151515610c2f57600080fd5b610c448260015461181390919063ffffffff16565b600181905550610c9b826000808673ffffffffffffffffffffffffffffffffffffffff1673ffffffffffffffffffffffffffffffffffffffff1681526020019081526020016000205461181390919063ffffffff16565b6000808573ffffffffffffffffffffffffffffffffffffffff1673ffffffffffffffffffffffffffffffffffffffff168152602001908152602001600020819055508273ffffffffffffffffffffffffffffffffffffffff167f0f6798a560793a54c3bcfe86a93cde1e73087d944c0ea20544137d4121396885836040518082815260200191505060405180910390a28273ffffffffffffffffffffffffffffffffffffffff16600073ffffffffffffffffffffffffffffffffffffffff167fddf252ad1be2c89b69c2b068fc378daa952ba7f163c4a11628f55a4df523b3ef846040518082815260200191505060405180910390a36001905092915050565b600080600260003373ffffffffffffffffffffffffffffffffffffffff1673ffffffffffffffffffffffffffffffffffffffff16815260200190815260200160002060008573ffffffffffffffffffffffffffffffffffffffff1673ffffffffffffffffffffffffffffffffffffffff16815260200190815260200160002054905080831115610eac576000600260003373ffffffffffffffffffffffffffffffffffffffff1673ffffffffffffffffffffffffffffffffffffffff16815260200190815260200160002060008673ffffffffffffffffffffffffffffffffffffffff1673ffffffffffffffffffffffffffffffffffffffff16815260200190815260200160002081905550610f40565b610ebf83826117fa90919063ffffffff16565b600260003373ffffffffffffffffffffffffffffffffffffffff1673ffffffffffffffffffffffffffffffffffffffff16815260200190815260200160002060008673ffffffffffffffffffffffffffffffffffffffff1673ffffffffffffffffffffffffffffffffffffffff168152602001908152602001600020819055505b8373ffffffffffffffffffffffffffffffffffffffff163373ffffffffffffffffffffffffffffffffffffffff167f8c5be1e5ebec7d5bd14f71427d1e84f3dd0314c0f7b2291e5b200ac8c7c3b925600260003373ffffffffffffffffffffffffffffffffffffffff1673ffffffffffffffffffffffffffffffffffffffff16815260200190815260200160002060008873ffffffffffffffffffffffffffffffffffffffff1673ffffffffffffffffffffffffffffffffffffffff168152602001908152602001600020546040518082815260200191505060405180910390a3600191505092915050565b60008060008373ffffffffffffffffffffffffffffffffffffffff1673ffffffffffffffffffffffffffffffffffffffff168152602001908152602001600020549050919050565b6000600360009054906101000a900473ffffffffffffffffffffffffffffffffffffffff1673ffffffffffffffffffffffffffffffffffffffff163373ffffffffffffffffffffffffffffffffffffffff161415156110d257600080fd5b600360149054906101000a900460ff161515156110ee57600080fd5b6001600360146101000a81548160ff0219169083151502179055507fae5184fba832cb2b1f702aca6117b8d265eaf03ad33eb133f19dde0f5920fa0860405160405180910390a16001905090565b600360009054906101000a900473ffffffffffffffffffffffffffffffffffffffff1681565b60058054600181600116156101000203166002900480601f0160208091040260200160405190810160405280929190818152602001828054600181600116156101000203166002900480156111f85780601f106111cd576101008083540402835291602001916111f8565b820191906000526020600020905b8154815290600101906020018083116111db57829003601f168201915b505050505081565b60008073ffffffffffffffffffffffffffffffffffffffff168373ffffffffffffffffffffffffffffffffffffffff161415151561123d57600080fd5b6000803373ffffffffffffffffffffffffffffffffffffffff1673ffffffffffffffffffffffffffffffffffffffff16815260200190815260200160002054821115151561128a57600080fd5b6112db826000803373ffffffffffffffffffffffffffffffffffffffff1673ffffffffffffffffffffffffffffffffffffffff168152602001908152602001600020546117fa90919063ffffffff16565b6000803373ffffffffffffffffffffffffffffffffffffffff1673ffffffffffffffffffffffffffffffffffffffff1681526020019081526020016000208190555061136e826000808673ffffffffffffffffffffffffffffffffffffffff1673ffffffffffffffffffffffffffffffffffffffff1681526020019081526020016000205461181390919063ffffffff16565b6000808573ffffffffffffffffffffffffffffffffffffffff1673ffffffffffffffffffffffffffffffffffffffff168152602001908152602001600020819055508273ffffffffffffffffffffffffffffffffffffffff163373ffffffffffffffffffffffffffffffffffffffff167fddf252ad1be2c89b69c2b068fc378daa952ba7f163c4a11628f55a4df523b3ef846040518082815260200191505060405180910390a36001905092915050565b60006114b082600260003373ffffffffffffffffffffffffffffffffffffffff1673ffffffffffffffffffffffffffffffffffffffff16815260200190815260200160002060008673ffffffffffffffffffffffffffffffffffffffff1673ffffffffffffffffffffffffffffffffffffffff1681526020019081526020016000205461181390919063ffffffff16565b600260003373ffffffffffffffffffffffffffffffffffffffff1673ffffffffffffffffffffffffffffffffffffffff16815260200190815260200160002060008573ffffffffffffffffffffffffffffffffffffffff1673ffffffffffffffffffffffffffffffffffffffff168152602001908152602001600020819055508273ffffffffffffffffffffffffffffffffffffffff163373ffffffffffffffffffffffffffffffffffffffff167f8c5be1e5ebec7d5bd14f71427d1e84f3dd0314c0f7b2291e5b200ac8c7c3b925600260003373ffffffffffffffffffffffffffffffffffffffff1673ffffffffffffffffffffffffffffffffffffffff16815260200190815260200160002060008773ffffffffffffffffffffffffffffffffffffffff1673ffffffffffffffffffffffffffffffffffffffff168152602001908152602001600020546040518082815260200191505060405180910390a36001905092915050565b6000600260008473ffffffffffffffffffffffffffffffffffffffff1673ffffffffffffffffffffffffffffffffffffffff16815260200190815260200160002060008373ffffffffffffffffffffffffffffffffffffffff1673ffffffffffffffffffffffffffffffffffffffff16815260200190815260200160002054905092915050565b600360009054906101000a900473ffffffffffffffffffffffffffffffffffffffff1673ffffffffffffffffffffffffffffffffffffffff163373ffffffffffffffffffffffffffffffffffffffff161415156116fe57600080fd5b600073ffffffffffffffffffffffffffffffffffffffff168173ffffffffffffffffffffffffffffffffffffffff161415151561173a57600080fd5b8073ffffffffffffffffffffffffffffffffffffffff16600360009054906101000a900473ffffffffffffffffffffffffffffffffffffffff1673ffffffffffffffffffffffffffffffffffffffff167f8be0079c531659141344cd1fd0a4f28419497f9722a3daafe3b4186f6b6457e060405160405180910390a380600360006101000a81548173ffffffffffffffffffffffffffffffffffffffff021916908373ffffffffffffffffffffffffffffffffffffffff16021790555050565b600082821115151561180857fe5b818303905092915050565b600080828401905083811015151561182757fe5b80915050929150505600a165627a7a7230582090383335281491e4f0e99d5104e7f1e78a6026f4cfa3dac80f571e0d219c04fc0029",
  "source": "pragma solidity ^0.4.15;\n\nimport \"./xFitToken.sol\";\n\nimport \"zeppelin-solidity/contracts/crowdsale/Crowdsale.sol\";\nimport \"zeppelin-solidity/contracts/token/ERC20/MintableToken.sol\";\nimport \"zeppelin-solidity/contracts/crowdsale/validation/CappedCrowdsale.sol\";\nimport \"zeppelin-solidity/contracts/crowdsale/distribution/RefundableCrowdsale.sol\";\nimport \"zeppelin-solidity/contracts/crowdsale/emission/MintedCrowdsale.sol\"; \n// import \"zeppelin-solidity/contracts/crowdsale/validation/TimedCrowdsale.sol\";\n\ncontract xFitTokenCrowdsale is Crowdsale, CappedCrowdsale {\n\n  function xFitTokenCrowdsale(uint256 _openingTime, uint256 _closingTime, uint256 _rate, uint256 _cap, uint256 _goal, address _wallet) public\n  Crowdsale(_rate, _wallet, new xFitToken())\n  CappedCrowdsale(_cap)\n//  TimedCrowdsale(_openingTime, _closingTime)\n//   RefundableCrowdsale(_goal)\n  {\n    require(_goal <= _cap);\n  }\n\n  function createXFitTokenContract() public payable returns (MintableToken) {\n    return new xFitToken();\n  }\n}\n",
  "sourcePath": "/Users/Colin/ChainSkills/Training/GreetingsTruffle/contracts/xFitTokenCrowdsale.sol",
  "compiler": {
    "name": "solc",
    "version": "0.4.18+commit.9cf6e910.Emscripten.clang"
  },
  "schemaVersion": "1.0.1",
  "updatedAt": "2018-03-07T23:54:40.876Z"
}